:0C00000012C0FECFFDCFFCCF2BC0FACF0A
:10000C00F9CFF8CFF7CFF6CFF5CFF4CFF3CFF2CFC0
:10001C00F1CFF0CFEFCFEECFEDCFF894EE27ECBBD6
:10002C00F1E0FBBFEBBFE5BFF8E1F1BDE1BD8DE059
:10003C00A2E0BB27ED938A95E9F780E094E0A0E677
:10004C00ED930197E9F7EFE5EDBFE4E0EEBFC0E615
:10005C00D1E001C0189510E0EFEFE8BBE7BBE0E0A2
:10006C00E5BBE4BBE2BBEFEFE1BBE0E0E3BFE2BF2B
:10007C00EFBDEEBDEDBDECBDE7BDE6BDEBBDEABD34
:10008C00E9BDE8BDE2BDE4E0E5BDE0E0E4BDE3BD13
:10009C00E5BFE0E4E9BFE0E0EAB9E0E8E8B9E0E0B8
:1000AC00E0BFE6B9EDB9E6BF7894C29810E018301D
:1000BC0060F410FD02C0C19801C0C19AC09AA2E3BD
:1000CC00B0E00CD0C0981F5FF2CFA4EFB1E006D027
:1000DC00C29AA4EFB1E002D0E8CFFFCF109639F06E
:1000EC0080ED97E00197F1F7A8951197C9F708955E
:00000001FF
